:100000000C942A000C9447000C9447000C94470071
:100010000C9447000C9447000C9447000C94D600B5
:100020000C940D010C9447000C943F010C94470074
:100030000C9447000C9447000C9447000C94470024
:100040000C9447000C9447000C9447000C94470014
:100050000C94470011241FBECFE5D8E0DEBFCDBF12
:1000600010E0A0E6B0E0EEE7F6E002C005900D92E9
:10007000AA3EB107D9F720E0AAEEB0E001C01D9278
:10008000A83FB207E1F70E9497010C943D030C943E
:10009000000089B990BD86E880BD88E18AB90895DD
:1000A0005F9BFECF8CB108955D9BFECF8CB9089508
:1000B0008DE00E9454008AE00E9454000895CF937E
:1000C000DF93EC018881882331F021960E9454004F
:1000D00089918111FBCF0E945800DF91CF91089543
:1000E00089E08EBD8AE699E09BBD8ABD8CED95E0E6
:1000F00099BD88BD88B599B50A969DBD8CBD88E12E
:1001000089BF89B7826089BF83B7846083BF80E776
:100110008CBF089581E088BB8093F700089582E04A
:1001200088BB8093F700089584E088BB83E08093C8
:10013000F700089588E088BB84E08093F700089575
:100140008091F700813019F40E948F000895823069
:1001500019F40E9494000895833019F40E949A00C3
:100160000895843011F40E948A0008958091F70068
:10017000813019F40E949A000895823019F40E9487
:100180008A000895833019F40E948F000895843006
:1001900011F40E94940008958091F600813019F4C2
:1001A0000E94A00008950E94B60008951F920F9229
:1001B0000FB60F9211242F933F934F935F936F933A
:1001C0008F939F93EF93FF9362B32091EB0030E006
:1001D0002E5F3F4F41E050E0CA0102C0880F991FD7
:1001E0002A95E2F7862B82BBE091EB00F0E0EE0F60
:1001F000FF1FE451FF4F8081918199BD88BDFF9120
:10020000EF919F918F916F915F914F913F912F91BE
:100210000F900FBE0F901F9018951F920F920FB660
:100220000F9211242F933F934F935F936F938F936C
:100230009F9362B32091EB0030E02E5F3F4F41E08F
:1002400050E0CA0102C0880F991F2A95E2F78095F5
:10025000862382BB8091EB008F5F8093EB0085301B
:1002600011F41092EB009F918F916F915F914F91DC
:100270003F912F910F900FBE0F901F9018951F92D6
:100280000F920FB60F9211242F933F934F935F93CA
:100290006F937F938F939F93AF93BF93EF93FF934E
:1002A0008091EA00882339F00E94CC008091EA0016
:1002B00081508093EA0012BEFF91EF91BF91AF9100
:1002C0009F918F917F916F915F914F913F912F916E
:1002D0000F900FBE0F901F9018958FE087BB81B3D2
:1002E0008C6181BB08951F93CF93DF930E945000D0
:1002F000D82F0E9454000E945000C82F0E94540022
:100300000E945000182F0E9454001D53DD53812F6E
:1003100094E6D99F800D1124CD53CC0F9C2F990FBB
:10032000990FC90F8C0FDF91CF911F910895CF9333
:1003300089E190E00E9449000E946D010E947000D6
:1003400078940E948A0080ED97E09093ED0080936E
:10035000EC009093EF008093EE009093F100809377
:10036000F0009093F3008093F2009093F500809357
:10037000F40080E690E00E945F000E9458000E9416
:1003800050008D3631F58DE690E00E945F0089E7E0
:1003900090E00E945F000E94500080538093F6001E
:1003A0000E947301682F70E080E090E00E94B1022B
:1003B00026E636E646EE5FE30E941B020E948302B9
:1003C0006093EA000E94580084EA90E00E945F0077
:1003D0002EC08337A1F683E790E00E945F000E9461
:1003E000580087EB90E00E945F000E945000C82FE9
:1003F0000E9458008DEC90E00E945F000E9458001F
:100400000E947301C0534C2F50E0282F30E0220F80
:10041000331FC901880F991F880F991F280F391F93
:10042000FA01EE0FFF1FE451FF4F3183208380E07C
:1004300090E0CF9108950CD0E6C0DED040F0D5D04A
:1004400030F021F45F3F19F0C7C0511110C1CAC08C
:10045000EBD098F39923C9F35523B1F3951B550BB2
:10046000BB27AA2762177307840738F09F5F5F4F87
:10047000220F331F441FAA1FA9F333D00E2E3AF0C8
:10048000E0E830D091505040E695001CCAF729D0E2
:10049000FE2F27D0660F771F881FBB1F2617370731
:1004A0004807AB07B0E809F0BB0B802DBF01FF2761
:1004B00093585F4F2AF09E3F510568F08DC0D7C01A
:1004C0005F3FECF3983EDCF3869577956795B7959B
:1004D000F7959F5FC9F7880F911D9695879597F9B6
:1004E0000895E1E0660F771F881FBB1F621773072F
:1004F0008407BA0720F0621B730B840BBA0BEE1F44
:1005000088F7E095089598D088F09F5790F0B92F1C
:100510009927B751A0F0D1F0660F771F881F991F58
:100520001AF0BA95C9F712C0B13081F09FD0B1E08E
:1005300008959CC0672F782F8827B85F39F0B93F9E
:10054000CCF3869577956795B395D9F73EF490955A
:100550008095709561957F4F8F4F9F4F0895E894D8
:1005600009C097FB3EF490958095709561957F4FFB
:100570008F4F9F4F9923A9F0F92F96E9BB279395A9
:10058000F695879577956795B795F111F8CFFAF4B9
:10059000BB0F11F460FF1BC06F5F7F4F8F4F9F4FEA
:1005A00016C0882311F096E911C0772321F09EE848
:1005B000872F762F05C0662371F096E8862F70E0AE
:1005C00060E02AF09A95660F771F881FDAF7880F88
:1005D0009695879597F9089597F99F6780E870E059
:1005E00060E008959FEF80EC089500240A941616A9
:1005F000170618060906089500240A941216130611
:10060000140605060895092E0394000C11F488239E
:1006100052F0BB0F40F4BF2B11F460FF04C06F5FBA
:100620007F4F8F4F9F4F089557FD9058440F551F90
:1006300059F05F3F71F04795880F97FB991F61F064
:100640009F3F79F087950895121613061406551FDB
:10065000F2CF4695F1DF08C0161617061806991F47
:10066000F1CF86957105610508940895E894BB273C
:0E06700066277727CB0197F90895F894FFCFFE
:10067E00636F6E74726F6C6520646520726F626F4B
:10068E007420726F76657273005320562050206569
:10069E006E74726572204C452053454E532045545E
:1006AE00206C6120706F736974696F6E20646520B1
:1006BE004D5041006F7065726174696E672E2E2EFB
:1006CE002E2E2E2E2E2E00207370656369666965A0
:1006DE0072206C6520736572766F3A20002020645C
:1006EE006F6E6E6572206C27616E676C65202030B0
:0A06FE002E2E2E2E2E313830200053
:00000001FF
